:020000040800F2
:10000000803000207D08000885060008870600086B
:100010008B0600088F060008930600080000000009
:10002000000000000000000000000000E9010008DE
:1000300097060008000000002D020008990600083D
:100040009708000897080008970800089708000814
:100050009708000897080008970800080F91000803
:1000600097080008970800089708000897080008F4
:1000700097080008970800089708000897080008E4
:1000800097080008970800089708000897080008D4
:1000900097080008970800089708000897080008C4
:1000A00097080008970800089708000897080008B4
:1000B00097080008EB910008899800089708000845
:1000C0009708000897080008970800089708000894
:1000D00097080008BF2E0008970800089708000836
:1000E00097080008970800089708000800F002F831
:1000F00000F06BF80AA090E8000C82448344AAF157
:100100000107DA4501D100F060F8AFF2090EBAE854
:100110000F0013F0010F18BFFB1A43F0010318473B
:10012000989D0100B89D01000A444FF0000C10F8A2
:10013000013B13F0070408BF10F8014B1D1108BF65
:1001400010F8015B641E05D010F8016B641E01F805
:10015000016BF9D113F0080F1EBF10F8014BAD1C55
:100160000C1B09D16D1E58BF01F801CBFAD505E073
:1001700014F8016B01F8016B6D1EF9D59142D6D3CD
:10018000704700000023002400250026103A28BFF5
:1001900078C1FBD8520728BF30C148BF0B607047F9
:1001A000642917F09385752917F09085782917F041
:1001B000C985632918F03F80732918F04480002016
:1001C00070471FB51FBD10B510BD18F089F8114656
:1001D000FFF7F7FF00F01FF918F0A7F803B4FFF7D7
:1001E000F2FF03BC02F010FE224B19680868B0E869
:1001F000F00F80F30988BFF36F8F4FF0000080F39A
:1002000011884EF00D0E704700000000064800688F
:10021000006880F3088862B661B6BFF34F8FBFF302
:100220006F8F00DF00BF00BF08ED00E0EFF3098033
:10023000BFF36F8F0F4B1A6820E9F00F106008B5FD
:100240004FF0500080F31188BFF34F8FBFF36F8FD3
:1002500016F09BFA4FF0000080F31188BDE80840CB
:1002600019680868B0E8F00F80F30988BFF36F8F52
:10027000704700BF6C020020EFF30580704700005C
:1002800010B58CB00446012C62D1B4484079B34912
:100290000979B24AD278B14B9B78CDE90032CDE9E9
:1002A0000210AE4843780278ADA104A817F0AAFC6A
:1002B00004A810210B46D222CDE9001082211E2075
:1002C00008F0FAFAA548407BA449097BCDE9001063
:1002D000A248C37A827AA9A104A817F093FC04A8C3
:1002E00010210B46D222CDE9001096211E2008F0E5
:1002F000E3FA9A48407D9949097DCDE90010974875
:10030000C37C827CA2A104A817F07CFC04A8102165
:100310000B46D222CDE90010AA211E2008F0CCFA0B
:100320008E48407C8D49097CCDE900108B48C37B09
:10033000827B92A104A817F065FC04A810210B464B
:10034000D222CDE90010BE211E2008F0B5FA60E0EF
:100350008248427900798149C978804B9B78CDE900
:100360000031CDE902027D48437802788DA104A8CE
:1003700017F048FC04A810210B46D222CDE900104A
:1003800082211E2008F098FA7448407B7349097B4B
:10039000CDE900107148C37A827A89A104A817F0C8
:1003A00031FC04A810210B46D222CDE90010962181
:1003B0001E2008F081FA6948407D6849097DCDE931
:1003C00000106648C37C827C83A104A817F01AFC45
:1003D00004A810210B46D222CDE90010AA211E202C
:1003E00008F06AFA5D48407C5C49097CCDE9001060
:1003F0005A48C37B827B72A104A817F003FC04A8AF
:1004000010210B46D222CDE90010BE211E2008F09B
:1004100053FA0CB010BD1CB502F086FC4FF4A0607E
:1004200000F04CFA4FF4E13002F0FDFC02F08CFDDC
:1004300002F0B2FD04F067FA40F2CF214FF47A7077
:1004400008F0A6FE6A48416848208847002009F065
:10045000A8FF4FF478406749088067A010210B4639
:10046000C822CDE900101E21084608F025FA66A032
:1004700010210B46C822CDE9001032211E2008F0C1
:100480001BFA64A010210B46C822CDE900104621BA
:100490001E2008F011FA63A010210B46C822CDE9F6
:1004A00000105A211E2008F007FA20E060A0102159
:1004B0001423C822CDE900106E211E2008F0FCF99B
:1004C0004FF4966002F06DFC4FF6FF708223E62237
:1004D0006E2100901E2007F024FF5AA010210B4629
:1004E000C822CDE900106E211E2008F0E5F90AF0BF
:1004F000B8F80028DAD156A010211423C822CDE97B
:1005000000106E211E2008F0D7F956A010210B46CE
:10051000C822CDE9001082211E2008F0CDF901E0AB
:100520000AF0A9F90D48807D022803D00B48807D90
:10053000FF28F5D10949887DFFF7A2FE0DE00AF0FA
:100540009AF9641C4CF25030844206D14B48006842
:10055000C0434B49C1F8A0010024F0E76C1D002006
:100560004D4143202020203A25642E25642E256409
:100570002E25642E25642E25640000004448435037
:100580002049503A25642E25642E25642E256400CA
:10059000444843502047573A25642E25642E25644D
:1005A0002E2564004D41432020202020203A256440
:1005B0002E25642E25642E25642E25642E256400A8
:1005C0005374617469632049503A25642E25642E62
:1005D00025642E256400000053746174696320470C
:1005E000573A25642E25642E25642E2564000000CC
:1005F000A800002048000020454E4332384A3630DB
:100600002B53544D333200004C57495020546573DE
:100610007421000041544F4D40414C49454E5445D2
:100620004B000000323031352F342F3237000000BC
:100630004C57495020496E69742046616C69656465
:10064000210000005265747279696E672E2E2E00AB
:100650004C57495020496E69742053756363657324
:10066000732100004448435020495020636F6E6658
:100670006967696E672E2E2E00000000A0012142DE
:1006800000002142704700BFFEE700BFFEE700BF49
:10069000FEE700BFFEE77047704700000CB5002082
:1006A000019000906C48006840F480306A4908600E
:1006B00000BF6948006800F4003000900198401CB9
:1006C0000190009818B90198B0F5A06FF1D1624877
:1006D000006800F4003010B10120009001E000201B
:1006E00000900098012843D15C48006840F0100059
:1006F0005A4908600846006820F003000860084670
:10070000006840F002000860534840685249486061
:100710000846406848600846406840F48060486089
:100720000846406820F47C1048600846406840F461
:10073000E81048600846006840F08070086000BF1C
:100740004548006800F000700028F9D04248406831
:1007500020F00300404948600846406840F002002D
:10076000486000BF3C48406800F00C000828F9D100
:100770000CBD10B5FFF792FF10BD10B536480068EC
:1007800040F0010034490860084640683449084098
:100790003149486008460068324908402E490860DF
:1007A0000846006820F4802008600846406820F46D
:1007B000FE0048604FF41F008860FFF7DAFF4FF03B
:1007C00000602949086010BD10B5002100200022FA
:1007D000214B5B6803F00C0121B1042906D00829E4
:1007E00028D107E0214B224C236027E01F4B204CEF
:1007F000236023E0184B5B6803F47010164B5B68B2
:1008000003F48032022303EB904022B9194B434397
:10081000174C23600DE0104B5B6803F4003323B1E9
:10082000144B4343124C236003E0104B4343104CE2
:10083000236003E00D4B0E4C236000BF00BF064B4E
:100840005B68C3F303130C4CE15C094B1B68CB40A2
:10085000074C236010BD0000001002400020024041
:100860000000FFF8FFFFF6FE08ED00E000127A003E
:100870000000002000093D000400002009488047D6
:1008800009480047FEE7FEE7FEE7FEE7FEE7FEE772
:10089000FEE7FEE7FEE7FEE704480549054A064B8A
:1008A000704700007B070008ED000008802A002048
:1008B00080300020802C0020802C00203149014312
:1008C000314A1160704770B5002100230F22C478AF
:1008D00004B32D4C246804F4E064C4F5E064210AF8
:1008E000C1F10403CA40447804FA03F18478144047
:1008F00021430901254C0678A155047804F01F0511
:100900000124AC4005786D11AD0005F1E025C5F876
:10091000004109E0047804F01F050124AC401C4D9F
:100920000678761145F8264070BD1A4A0A400243FF
:10093000154B1B1F1A60704739B1134A121D1268FC
:100940000243114B1B1D1A6006E00F4A121D12686C
:1009500082430D4B1B1D1A607047042808D14FF0CD
:10096000E021096941F004014FF0E022116107E044
:100970004FF0E021096921F004014FF0E0221161FC
:10098000704700000000FA050CED00E000E400E014
:1009900080E100E080FFFF1FDF48006840F00100B9
:1009A000DD49086008464068DC490840DA4948608B
:1009B00008460068DA490840D749086008460068D8
:1009C00020F4802008600846406820F4FE0048605B
:1009D0004FF41F0088607047CF49096821F48031C7
:1009E000CD4A11601146096821F480211160B0F5EB
:1009F000803F03D0B0F5802F0ED106E0C6490968CC
:100A000041F48031C44A116007E0C349096841F4E8
:100A1000A021C14A116000E000BF00BF704710B5BF
:100A200001460022002300204A11012A02D1BA4CBB
:100A3000236806E0022A02D1B74C236A01E0B64CD3
:100A4000636A01F01F02012494401C400CB1012094
:100A500000E0002010BD38B50020009000240025E3
:100A600000BF3120FFF7DBFF05460098401C0090D7
:100A70000098B0F5A06F01D0002DF2D03120FFF723
:100A8000CEFF08B1012400E00024204638BD014615
:100A90000020A14A106820F0F80040EAC100106070
:100AA0007047A04908607047024600209A4B58687A
:100AB00020F47C1042EA01031843974B58607047BA
:100AC00098490866704701460020934A506820F014
:100AD00003000843506070478F48406800F00C00E6
:100AE0007047014600208C4A506820F0F00008430F
:100AF0005060704701460020874A506820F4E0604B
:100B000008435060704701460020834A506820F433
:100B1000605040EAC1005060704729B17E4A527A65
:100B200002437D4B5A7204E07B4A527A82437A4BED
:100B30005A7270477B49D8310860704701460020DF
:100B4000754A506820F440400843506070470021C7
:100B5000714A20321170704A82F82010012802D0A8
:100B600004280AD104E001216B4A2032117005E00B
:100B70000521694A2032117000E000BF00BF7047B4
:100B80006949086070476449096A0143624A116211
:100B90007047654944390860704730B5002100222C
:100BA000002400235C4D6D6805F00C0121B104297F
:100BB00005D0082923D105E05C4D056022E05B4D9E
:100BC00005601FE0544D6D6805F47012524D6D685C
:100BD00005F48034022505EB92421CB9544D55436F
:100BE00005600BE04C4D6D6805F400351DB1504DAE
:100BF0005543056002E04D4D5543056002E04B4D05
:100C0000056000BF00BF444D6D6805F0F0010909A3
:100C1000484D6B5C0568DD4045603F4D6D6805F4EF
:100C2000E061090A434D6B5C4568DD4085603A4DE3
:100C30006D6805F46051C90A3E4D6B5C4568DD4046
:100C4000C560354D6D6805F44041890B3A4D6B5CCC
:100C5000C568B5FBF3F5056130BD29B12E4A52696F
:100C600002432D4B5A6104E02B4A526982432A4BBE
:100C70005A61704729B1284A92690243264B9A610A
:100C800004E0254A92698243234B9A61704729B157
:100C9000214AD2690243204BDA6104E01E4AD2693C
:100CA00082431D4BDA61704729B11B4AD268024367
:100CB000194BDA6004E0184AD2688243164BDA60B6
:100CC000704729B1144A12690243134B1A6104E0B8
:100CD000114A12698243104B1A6170471249403918
:100CE000086070470F49C86470470B49C871704766
:100CF0000948406A40F080700749486270470146E1
:100D00000020054A92680A400AB1012000E0002054
:100D10007047014988727047001002400000FFF8D8
:100D2000FFFFF6FE000042428004424200127A00B9
:100D300000093D00140000202400002010B50446E6
:100D4000BE48844208D101218014FFF7ADFF002185
:100D5000A014FFF7A9FF16E0B948844208D1012189
:100D60000014FFF7AEFF00212014FFF7AAFF0AE0EE
:100D7000B448844207D10121C013FFF7A2FF00212C
:100D8000E013FFF79EFF10BD10B50022028802F4A9
:100D900041520B884C8823438C882343CC882343BF
:100DA0000C8923434C8923438C892343CC892343D7
:100DB0001A430280838B4FF2FF74234083830B8A94
:100DC000038210BD2DE9F04F85B005460C464FF06B
:100DD000000902274FF000084FF0010B0026B24631
:100DE000A88B4FF240010840A88302202884B5F860
:100DF0001C90A068022801D100BF38E0A08810B97B
:100E00004FF0010B01E04FF0020B8D48854200D1FD
:100E100000E000BF6846FFF7C0FEDDF800A0E088F4
:100E2000B0F5007F0AD14FEA1A2000EB80004000A5
:100E3000A168B0FBF1F0401D86B20BE04FEA4B1009
:100E4000BAFBF0F000EB80004000A168B0FBF1F0CD
:100E5000401D86B20A20B6FBF0F606F00108A6EBAC
:100E60000800C0F34F074FF6FF7000EA0828022F72
:100E700001DBFF2F02DD02274FF00008E08840EA87
:100E8000080038432884A088A18908436188084362
:100E90002188084340F4006040EA0909A5F81C9045
:100EA00005B0BDE8F08F0021018041808180C180C4
:100EB000018141818181C181072101827047002127
:100EC000018041808180C180022181600021818177
:100ED000704721B1028842F04002028004E002889B
:100EE0004FF6BF731A400280704721B1828B42F4E3
:100EF0008062828304E0828B4FF6FF331A40828344
:100F0000704730B5002400230C110125A540ABB279
:100F10001AB185881D43858002E085889D438580C0
:100F200030BD1AB183880B43838002E083888B43F2
:100F300083807047818170470146888970474FF6EA
:100F4000FF62914204D0028842F48072028004E081
:100F500002884FF6FF631A400280704721B18288F1
:100F600042F00402828004E082884FF6FB731A404C
:100F70008280704702884FF2FF731A400280028815
:100F80000A4302807047018841F480510180704714
:100F900021B1028842F40052028004E002884DF63A
:100FA000FF731A400280704702460020012901D0D9
:100FB000108B00E0908A70470146088A7047B1F5AF
:100FC000804F04D1028842F48042028004E002880B
:100FD0004BF6FF731A4002807047024600201389C7
:100FE0000B400BB1012000E000207047CA43028192
:100FF0007047F0B50246002000240023002501F0D0
:101000000F070126BE40B4B20B1101269E40B3B2B9
:10101000968806EA03051689264016B10DB101200F
:1010200000E00020F0BD10B5002201F00F04012304
:10103000A3409AB2D343038110BD000000300140A9
:1010400000380040003C004010B50446FB48844294
:1010500009D101218803FFF727FE00214FF48040CA
:10106000FFF722FE32E0F648844209D1012148040C
:10107000FFF727FE00214FF40030FFF722FE25E0A6
:10108000F048844209D101218804FFF71AFE0021AB
:101090004FF48020FFF715FE18E0EB48844209D199
:1010A0000121C804FFF70DFE00214FF40020FFF7D7
:1010B00008FE0BE0E548844208D101210805FFF74E
:1010C00000FE00214FF48010FFF7FBFD10BD2DE95D
:1010D000F04786B005460E460024A24600BFA14652
:1010E0000027B08900B100BF2F462C8A4CF6FF7054
:1010F0000440F08804432C82AC894EF6F31004407F
:10110000B08831890843718908430443AC81AC8AB3
:101110004FF6FF400440B0890443AC8201A8FFF7BA
:101120003CFDC648874202D1DDF810A001E0DDF8A1
:101130000CA0A88900F4004040B10AEBCA0000EB03
:101140000A1031684900B0FBF1F807E00AEBCA0069
:1011500000EB0A1031688900B0FBF1F86420B8FB9D
:10116000F0F004012009642101FB1089A88900F432
:10117000004040B1322000EBC900B0FBF1F000F0BC
:101180000700044308E0322000EB09106421B0FBA3
:10119000F1F000F00F0004432C8106B0BDE8F087A9
:1011A0004FF41651016000218180C18001810C2122
:1011B000418100218181704710B502460020108ACC
:1011C0004FF2FF0318400B884C8823438C8823433D
:1011D000CC8823431843108210BD00210180418038
:1011E0008180C180704721B1828942F4005282819E
:1011F00004E082894DF6FF731A4082817047F0B592
:101200000346002400260025002040F66A17B94254
:1012100000D100BF1846C1F3421401F01F06012798
:1012200007FA06F5012C01D10C3004E0022C01D1A3
:10123000103000E014301AB107682F43076002E055
:101240000768AF430760F0BD1AB1838A0B438382FE
:1012500002E0838A8B4383827047028A4FF6F073E1
:101260001A400282028A0A430282704782894FF240
:10127000FF731A40828182890A438281704721B1BB
:10128000828942F00202828104E082894FF6FD7376
:101290001A4082817047028A4FF6DF731A40028239
:1012A000028A0A430282704721B1028A42F48042D4
:1012B000028204E0028A4BF6FF731A4002827047F2
:1012C000C1F308028280704701468888C0F3080095
:1012D0007047818941F0010181817047028BD2B250
:1012E0000283028B42EA012202837047028B02F4DE
:1012F0007F420283028B0A430283704721B1828AB4
:1013000042F02002828204E0828A4FF6DF731A40A4
:101310008282704721B1828A42F01002828204E008
:10132000828A4FF6EF731A408282704721B1828A17
:1013300042F00802828204E0828A4FF6F7731A4074
:101340008282704721B1828942F40042828103E0A7
:101350008289C2F30E028281704721B1828A42F4EF
:101360000062828204E0828A4FF2FF731A40828216
:101370007047828A4FF6FB731A408282828A0A4340
:101380008282704721B1828A42F00202828204E0A6
:10139000828A4FF6FD731A4082827047024600200F
:1013A000B1F5007F00D100BF13880B400BB10120C5
:1013B00000E00020704701F40072B2F5007F00D118
:1013C00000BFCA430280704770B502460024002364
:1013D0000025002040F66A16B14200D100BFC1F3DB
:1013E000421501F01F03012606FA03F3012D02D175
:1013F0009689334006E0022D02D1168A334001E07F
:10140000968A33400C12012606FA04F416883440FA
:1014100013B10CB1012000E0002070BD10B5002216
:10142000002340F66A14A14200D100BF0A12012431
:101430009440A3B2DC43048010BD0000003801409A
:101440000044004000480040004C00400050004074
:1014500010B50446CC48844208D101210420FFF78E
:1014600023FC00210420FFF71FFC46E0C74884420C
:1014700008D101210820FFF717FC00210820FFF701
:1014800013FC3AE0C248844208D101211020FFF742
:101490000BFC00211020FFF707FC2EE0BD48844222
:1014A00008D101212020FFF7FFFB00212020FFF7BA
:1014B000FBFB22E0B848844208D101214020FFF71D
:1014C000F3FB00214020FFF7EFFB16E0B348844216
:1014D00008D101218020FFF7E7FB00218020FFF7E2
:1014E000E3FB0AE0AE48844207D101218015FFF7F3
:1014F000DBFB0021A015FFF7D7FB10BD10B50121C4
:101500000846FFF7D1FB00210120FFF7CDFB10BDFE
:101510002DE9F0410246002500260020002300248A
:10152000002791F803C00CF00F0591F803C00CF0F0
:10153000100CBCF1000F03D091F802C04CEA050575
:1015400091F800C0BCF1000F31D0146800202BE0EE
:101550004FF0010C0CFA00F3B1F800C00CEA0306DE
:101560009E4220D183004FF00F0C0CFA03F7BC43CE
:1015700005FA03FC4CEA040491F803C0BCF1280FFF
:1015800006D14FF0010C0CFA00FCC2F814C00AE0BE
:1015900091F803C0BCF1480F05D14FF0010C0CFAD3
:1015A00000FCC2F810C0401C0828D1D31460B1F868
:1015B00000C0BCF1FF0F34DD546800202EE000F1C4
:1015C000080C4FF0010808FA0CF3B1F800C00CEA5F
:1015D00003069E4221D183004FF00F0C0CFA03F753
:1015E000BC4305FA03FC4CEA040491F803C0BCF1C7
:1015F000280F05D100F1080C08FA0CF8C2F8148085
:1016000091F803C0BCF1480F07D100F1080C4FF06E
:10161000010808FA0CF8C2F81080401C0828CED344
:101620005460BDE8F0814FF6FF71018002218170A6
:101630000421C17070470246002093680B400BB133
:10164000012000E0002070470146886880B27047A2
:1016500002460020D3680B400BB1012000E00020BF
:1016600070470146C86880B27047016170474161A8
:1016700070470AB1016100E041617047C160704785
:101680004FF480320A43826181618261826982699A
:10169000704702460020434B18684FF6807318408D
:1016A00040EA021008433F4B186070473E49C8614A
:1016B0007047F0B50A46002300240021002500F001
:1016C0000046B6F1004F02D1364EF16901E0354EC9
:1016D0007168C0F3034583B200F44016B6F5401FAD
:1016E00008D121F070612F4E766826F070662D4F7C
:1016F0007E6012E000F48016B6F5801F06D1032646
:1017000006FA05F4A14341F0706106E0460D36018A
:1017100003FA06F6B14341F0706122B1460D36017D
:1017200003FA06F6314300F00046B6F1004F02D14D
:101730001C4EF16101E01B4E7160F0BD30B500221E
:101740008B071C0F0F2303FA04F2164B08338C107F
:1017500053F824309343134C08348D1044F825304B
:1017600023468C1053F824308C07240F00FA04F41D
:1017700023430C4C08348D1044F8253030BD0A4901
:10178000DC3108607047000000080140000C014097
:10179000001001400014014000180140001C0140ED
:1017A0000020014000000140000020422DE9F041EE
:1017B00004460D4616461F464FF00008656024613A
:1017C000B5420CD8F01BA169884202D34FF0010842
:1017D00011E0211DF748006813F0AEFC0BE0BE429B
:1017E00004D2BD4202D34FF0010804E0211DF248AB
:1017F000006813F0A1FC4046BDE8F0812DE9FF47E9
:1018000004460D4616461F46DDF830804FF00009AD
:101810002CB94FF4D372E9A1EFA016F0E7F9F24822
:10182000006810B3009501960294062D15DA15F0A4
:10183000E0FB022808D1002342466946EA480068D6
:1018400013F0FEFD814610E000231A466946E64883
:10185000006813F0F5FD814607E000233A4669462B
:10186000E148006814F05AF88146484604B0BDE8E3
:10187000F0872DE9F8432DE0CF480068C06805687F
:10188000CD480068C068C468201D13F06FFC204676
:10189000616A8847E06901281CD1A0694619AE42F7
:1018A00007D966602461211DC348006813F044FC19
:1018B00010E0002003462A46014600902046FFF72C
:1018C0009DFF07462FB940F29232BCA1C2A016F08C
:1018D0008DF900BFB8480068006808B9012000E031
:1018E00000200028C8D0B448D0F80080B148006873
:1018F000B1490860AF48C0F80080BDE8F88370B512
:10190000044615F00CF90546B8480068854204D233
:10191000FFF7AFFF0120206001E000202060B34806
:101920000560284670BDF0B587B070E003980028C8
:101930000CDA04AE2EB940F2E722A0A1A6A016F060
:1019400055F9D6E90020B168904700BF03980028F8
:101950005DDB059C606908B9012000E0002010B93A
:10196000201D13F003FC02A8FFF7C9FF05460398EA
:101970000A284AD2DFE800F00905072C2E450608A0
:101980002D2F00BF00BF00BF00BF0498A2698118BF
:1019900003462A462046FFF709FFC0B12046616A88
:1019A0008847E069012812D1002000900498A169BD
:1019B0004218002319462046FFF720FF07462FB99B
:1019C00040F221327DA184A016F010F900BF1DE085
:1019D00000BF1BE000BF0498A061A06908B101200E
:1019E00000E0002028B94FF44E7274A17AA016F0DE
:1019F000FDF8A06941192B462A462046FFF7D6FE7E
:101A000004E0204615F048FF00E000BF00BF0023BF
:101A10001A4603A97448006813F05CFE002885D1BB
:101A200007B0F0BDF8B505460F4663480068C068CA
:101A3000C468201D13F09AFBE069012818D1A06941
:101A400041192B463A462046FFF7B0FE80B10020F0
:101A500003462A46014600902046FFF7CFFE064681
:101A60002EB94FF4027255A15BA016F0BFF800BF6B
:101A70002046616A8847F8BDF8B505460C4614F063
:101A8000FAFC6846FFF73BFF0646009820BB44B9C6
:101A9000B54206D814F044FC31462846FFF7C2FF91
:101AA0001CE03CB143480068006808B9012000E030
:101AB00000200446A91B22464B48006814F07FF919
:101AC00014F02EFC50B94FF0805049490860BFF324
:101AD0004F8FBFF36F8F01E014F022FCF8BD014679
:101AE000354A126812680AB9012200E000220A6031
:101AF0000A6822B9304A1268D268106800E00020F3
:101B0000704708B500BF6846FFF7E9FF0446204666
:101B10000099FFF7B1FFFFF706FFF4E710B515F0E6
:101B2000B6FF31480068D0B9324813F0E9FA3248BC
:101B300013F0E6FA2F48204908602F481D49086035
:101B400000221021052013F080FB27490860084679
:101B5000006820B129A12448006814F00AF915F0A2
:101B6000B9FF10BD1CB50024FFF7D8FF1E48006860
:101B700058B124481F2100234FF48272CDE9001090
:101B800021A1234814F056FA04462CB940F233122E
:101B90000AA111A016F02AF820461CBD2DE9F04735
:101BA00006460D4617469846DDE908940DB101201A
:101BB00031E02FE02C000020280000202E2E5C4673
:101BC00072656552544F535C536F757263655C74F4
:101BD000696D6572732E63004572726F723A257378
:101BE0002C25640D0A000000300000203800002081
:101BF00004ED00E0CC020020E0020020546D7251A0
:101C00000000000034000020546D72205376630001
:101C1000031B0008002038B94FF4C672AFF264010C
:101C2000AFF24C0015F0E2FF5CB1FFF777FF2660E2
:101C3000A561E761C4F82080C4F82490201D13F04A
:101C40006CFABDE8F0872DE9FC4705460E461746BD
:101C50009846DDF828902C2015F09BFD04463CB1F9
:101C600043463A4631462846CDE90094FFF796FFB1
:101C70002046BDE8FC8710B55B48006808B101202C
:101C800000E0002038B94FF4E872AFF2D001AFF2B3
:101C9000B80015F0ABFF5448006810BD70B504469D
:101CA00025463CB940F2D912AFF2F001AFF2D800AC
:101CB00015F09CFFA86970BD70B5044625463CB977
:101CC00040F2E312AFF20C11AFF2F40015F08EFF08
:101CD0006E68304670BD70B5044625463CB940F28A
:101CE000ED12AFF22811AFF2101015F07FFF286847
:101CF00070BD70B5044626463CB940F2DA32AFF208
:101D00004411AFF22C1015F071FF15F0C0FE706990
:101D100008B9012000E0002080F0010515F0DAFE8E
:101D2000284670BD70B5044626463CB940F2EF32F5
:101D3000AFF27811AFF2601015F058FF15F0A7FE62
:101D4000356A15F0C7FE284670BD70B504460D46CD
:101D500026463CB940F2FF32AFF2A011AFF2881034
:101D600015F044FF15F093FE356215F0B3FE70BD1B
:101D70002DE9FF4104460D4616461F466FF001004F
:101D8000009001940295039600233A46694617484D
:101D9000006813F0C3FD8046404604B0BDE8F08102
:101DA0002DE9FF4104460D4616461F460F480068C0
:101DB00038B940F22B42AFF2FC11AFF2E41015F04B
:101DC00015FF4FF0FF300090019402950396002319
:101DD0003A4669460548006813F032FB80464046A3
:101DE00004B0BDE8F0810000340000203000002085
:101DF00010B50446FE48844208D10121C014FEF704
:101E000053FF0021E014FEF74FFFC4E0B4F1804F10
:101E100008D101210846FEF754FF00210120FEF7FA
:101E200050FFB8E0F348844208D101210220FEF7B8
:101E300048FF00210220FEF744FFACE0EE48844258
:101E400008D101210420FEF73CFF00210420FEF709
:101E500038FFA0E0E948844208D101210820FEF7BC
:101E600030FF00210820FEF72CFF94E0E448844274
:101E700008D101211020FEF724FF00211020FEF7D9
:101E800020FF88E0DF48844208D101212020FEF7AE
:101E900018FF00212020FEF714FF7CE0DA4884427E
:101EA00008D101214014FEF7FFFE00216014FEF767
:101EB000FBFE70E0D548844209D10121C804FEF739
:101EC000F3FE00214FF40020FEF7EEFE63E0D04861
:101ED000844209D101210805FEF7E6FE00214FF4F6
:101EE0008010FEF7E1FE56E0CA48844209D1012184
:101EF0004805FEF7D9FE00214FF40010FEF7D4FE8E
:101F000049E0C548844208D101214020FEF7D9FEAE
:101F100000214020FEF7D5FE3DE0C048844208D1B4
:101F200001218020FEF7CDFE00218020FEF7C9FEB2
:101F300031E0BB48844208D101218015FEF7C1FE83
:101F40000021A015FEF7BDFE25E0B648844209D168
:101F500001210804FEF7A8FE00214FF48030FEF7AF
:101F6000A3FE18E0B048844209D101214804FEF7DD
:101F70009BFE00214FF40030FEF796FE0BE0AB48CD
:101F8000844208D101218804FEF78EFE00214FF41F
:101F90008020FEF789FE10BD00220288944B9842F3
:101FA0000ED0994B98420BD0B0F1804F08D0914B96
:101FB000984205D0904B984202D0904B984204D161
:101FC0004FF68F731A404B881A438D4B984207D0B7
:101FD0008C4B984204D04FF6FF431A40CB881A43EB
:101FE00002808B8883850B880385814B98420BD0B8
:101FF000854B984208D08B4B984205D08A4B98422B
:1020000002D08A4B984201D10B7A03860123838246
:10201000704770B5002400220023058C4FF6FE7631
:1020200035400584028C8388048B4FF68F752C40D5
:10203000B51E2C400D882C43751E2A400D892A435D
:102040004D882A436A4DA8420BD06F4DA84208D054
:10205000744DA84205D0744DA84202D0734DA842D9
:1020600013D14FF6F7752A404D892A434FF6FB7579
:102070002A408D882A434FF6FF652B404FF6FF55C7
:102080002B408D892B43CD892B4383800483CD88BE
:102090008586028470BD70B5002400220023058C63
:1020A0004FF6EF7635400584028C8388048B48F622
:1020B000FF752C404FF6FF452C400D884FF6FF76FC
:1020C00006EA05252C434FF6DF752A400D8906EAFE
:1020D00005152A434D8806EA05152A43444DA842B2
:1020E00002D0494DA8421DD14FF67F752A404D8937
:1020F0004FF6FF7606EA05152A434FF6BF752A40CC
:102100008D8806EA05152A434FF6FF352B404FF21E
:10211000FF752B408D8906EA85052B43CD8906EA9C
:1021200085052B4383800483CD880587028470BD99
:1021300070B5002400220023058C4FF6FF66354061
:102140000584028C8388848B4FF68F752C404FF664
:10215000FC752C400D882C434FF6FF552A400D8905
:102160004FF6FF7606EA05252A434D8806EA05253F
:102170002A431F4DA84202D0234DA8421DD14FF241
:10218000FF752A404D894FF6FF7606EA05252A435A
:102190004FF6FF352A408D8806EA05252A434EF67C
:1021A000FF752B404DF6FF752B408D8906EA05150E
:1021B0002B43CD8906EA05152B4383808483CD8884
:1021C0008587028470BD70B5002200230024058C31
:1021D0004EF6FF7635400584038C8488828B48F662
:1021E000FF752A404FF6FF452A400D8820E0000089
:1021F000002C01400004004000080040000C00409A
:10220000001000400014004000340140004C014028
:10221000005001400054014000180040001C0040E4
:1022200000200040004001400044014000480140BF
:102230004FF6FF7606EA05252A434DF6FF752B403B
:102240000D8906EA05352B434D8806EA05352B43F3
:10225000FA4DA84202D0FA4DA84208D14BF6FF75BC
:102260002C408D894FF6FF7606EA85152C43848035
:102270008283CD88A0F84050038470BD828B4FF2DA
:10228000FF331A408283828B4FF6FF7303EA0123E8
:102290001A4382837047F0B50C4615460022002190
:1022A0000026078C4EF6FF7C07EA0C070784828B1A
:1022B000018C4FF6FF7707EA043640F6FF473A40B5
:1022C0004FF6FF7707EA05273A434FF6FF7707EA0D
:1022D00003373A43D94FB8420ED0D94FB8420BD04A
:1022E000B0F1804F08D0D74FB84205D0D64FB84292
:1022F00002D0D64FB84206D14DF6FF77394046F4AA
:102300008057394305E047F6FF57394044F480577A
:10231000394382830184F0BD828B4FF6F3731A40F8
:102320008283828B0A4382837047F0B50C46154640
:10233000002200210026078C4FF6FF6C07EA0C07ED
:102340000784828B018C4FF6FF7707EA04264FF64D
:102350000C773A404FF6FF7707EA03172F433A43CB
:10236000B64FB8420ED0B64FB8420BD0B0F1804F46
:1023700008D0B44FB84205D0B34FB84202D0B34FE3
:10238000B84206D14FF6FF57394046F480773943BB
:1023900005E04FF2FF57394044F480773943828398
:1023A0000184F0BD028B4FF2FF331A400283028B8F
:1023B0004FF6FF7303EA01231A4302837047F0B517
:1023C0000C461546002200210026078C4FF6EF7CB4
:1023D00007EA0C070784028B018C4FF6FF7707EAA8
:1023E000041640F6FF473A404FF6FF7707EA0337F7
:1023F0003A434FF6FF7707EA05273A438F4FB84233
:102400000ED08F4FB8420BD0B0F1804F08D08D4F17
:10241000B84205D08C4FB84202D08C4FB84206D19A
:102420004FF6DF77394046F01007394305E04FF6A5
:102430005F77394044F01007394302830184F0BDCF
:10244000028B4FF6F3731A400283028B0A43028316
:102450007047F0B50C46154600220021068C4FF659
:10246000FE773E400684028B018C4FF60C7632409C
:102470007E1C06EA03162E433243704EB0420ED045
:102480006F4EB0420BD0B0F1804F08D06D4EB042CD
:1024900005D06D4EB04202D06C4EB04206D14FF620
:1024A000FD76314044F00106314305E04FF6F57604
:1024B000314044F00106314302830184F0BD70B520
:1024C00005460C465D4885420ED05D4885420BD0DE
:1024D000B5F1804F08D05B48854205D05A48854207
:1024E00002D05A48854200D100E000BF208850B990
:1024F0002389A28861882846FFF7ABFFE188284638
:10250000FFF79EFF25E0208804280AD12389A288AE
:1025100061882846FFF753FFE1882846FFF742FF0E
:1025200017E0208808280AD12389A28861882846D4
:10253000FFF7FBFEE1882846FFF7EEFE09E023895E
:10254000A28861882846FFF7A6FEE1882846FFF7A3
:1025500095FE70BD2DE9F04105460C460026012789
:10256000608808B9022600E00026A088012801D171
:10257000022700E001272088A0B92389A28861886A
:102580002846FFF766FFE1882846FFF759FF2389B1
:102590003A4631462846FFF712FFE1882846FFF702
:1025A00001FF13E02389A28861882846FFF707FF0F
:1025B000E1882846FFF7F6FE23893A463146284649
:1025C000FFF747FFE1882846FFF73AFFBDE8F081B3
:1025D0000A884B881A438B881A43CB881A430B8985
:1025E0001A434B891A438B891A43A0F84420704739
:1025F0004FF6FF71818000210180C180418001720E
:1026000070470021018041808180C180018141812A
:102610008181C18170470021018041800121818039
:102620000021C180018170470021018041808180AB
:10263000C18001814181818170470000002C0140EF
:10264000003401400004004000080040000C00403D
:1026500021B1028842F00102028004E002884FF6B4
:10266000FE731A400280704731B1B0F8442042F442
:102670000042A0F8442005E0B0F84420C2F30E0266
:10268000A0F8442070471AB183890B43838102E08C
:1026900083898B43838170478182704741EA0203BB
:1026A000A0F8483070471AB183890B43838102E058
:1026B00083898B438381704701894FF6F8721140FB
:1026C000018170470A46002101894FF68F73194036
:1026D00011430181704730B504460D462946204616
:1026E000FFF7F0FF208940F00700208130BD2DE981
:1026F000F04104460D4616461F46602D06D13B4666
:10270000012231462046FFF75AFE05E03B460122F2
:1027100031462046FFF79DFE29462046FFF7D2FFAF
:10272000208940F007002081BDE8F08130B50C46DB
:1027300000210189C9B24FF6FF7505EA032515434B
:1027400025432943018130BD2DE9F04105460E4660
:1027500017469846002443463A4631462846FFF736
:10276000E5FF2C894FF6F870044044F007044FF65B
:102770008F70044044F070042C81BDE8F081F0B506
:1027800004460D4616461F463B463246294620461D
:10279000FFF7CCFF208940F480402081F0BD018507
:1027A000828270470A46002101884FF68F731940D4
:1027B000114301807047F0B50C4615461E460021B6
:1027C000002200230189028B038C4FF6F8773940F1
:1027D00021434FF6FC473A4040F201173A434FF687
:1027E000DD773B404FF6FF7707EA06172F433B4361
:1027F000018102830384F0BD0A460021018B4FF65C
:102800008F7319401143018370470A460021018BE1
:1028100048F6FF7319404FF6FF7303EA022319438A
:10282000018370470A460021818B4FF68F73194050
:102830001143818370470A460021818B48F6FF735C
:1028400019404FF6FF7303EA02231943818370474F
:1028500021B1028842F08002028004E002884FF633
:102860007F731A400280704721B1828842F00402CF
:10287000828004E082884FF6FB731A4082807047A2
:1028800021B1828842F00802828004E082884FF6FB
:10289000F7731A408280704721B1828842F00102AA
:1028A000828004E082884FF6FE731A40828070476F
:1028B0000A460021018B4FF6F7731940114301833B
:1028C00070470A460021018B4FF2FF7319404FF603
:1028D000FF7303EA02231943018370470A4600216C
:1028E000818B4FF6F77319401143818370470A4675
:1028F0000021818B4FF2FF7319404FF6FF7303EAFB
:1029000002231943818370470A460021018B4FF649
:10291000FB7319401143018370470A460021018B64
:102920004FF6FF3319404FF6FF7303EA02231943B2
:10293000018370470A460021818B4FF6FB731940D3
:102940001143818370470A460021818B4FF6FF3384
:1029500019404FF6FF7303EA02231943818370473E
:102960000A460021018B4FF67F7319401143018302
:1029700070470A460021018BC1F30E014FF6FF7329
:1029800003EA02231943018370470A460021818B21
:102990004FF67F7319401143818370470A46002127
:1029A000818BC1F30E014FF6FF7303EA0223194333
:1029B000818370470A460021018C4FF6FD73194050
:1029C0001143018470470A460021018C4FF6F773CA
:1029D00019401143018470470A460021018C4FF6CB
:1029E000DF7319404FF6FF7303EA021319430184A2
:1029F00070470A460021018C4FF67F7319404FF64D
:102A0000FF7303EA02131943018470470A46002149
:102A1000018C4FF6FF5319404FF6FF7303EA022370
:102A20001943018470470A460021018C4FF2FF735D
:102A300019404FF6FF7303EA0223194301847047DC
:102A40000A460021018C4DF6FF7319404FF6FF73C3
:102A500003EA023319430184704730B5002301248F
:102A60008C40A3B2048C9C430484048C02FA01F5CC
:102A7000ADB22C43048430BD30B5002304248C4017
:102A8000A3B2048C9C430484048C02FA01F5ADB219
:102A90002C43048430BD70B5034600200024184642
:102AA000183001258D40ACB21D8CA5431D8409B1A1
:102AB000082909D100EB6100056825F07005056063
:102AC0000568154305600EE00D1FC5F34E0528444B
:102AD000056825F4E045056005684FF6FF7606EACF
:102AE00002263543056070BD21B1028842F0020222
:102AF000028004E002884FF6FD731A40028070479E
:102B000021B1028842F00402028004E002884FF6FC
:102B1000FB731A400280704721B1828842F0800224
:102B2000828004E082884FF67F731A40828070476B
:102B300002884FF6F7731A40028002880A43028027
:102B4000704782884FF68F731A40828082880A43CA
:102B50008280704702894FF6F8731A400281028919
:102B60000A430281704702894FF67F731A4002813F
:102B700002890A43028170478184704781857047CA
:102B8000818670470187704781877047A0F84010A1
:102B9000704702884FF6FF431A40028002880A43BA
:102BA000028070470146888E70470146088F704743
:102BB0000146888F70470146B1F8400070470146D2
:102BC000888C70470146088D704702460020138AA2
:102BD0000B400BB1012000E000207047CA43028285
:102BE000704730B50246002000230024158A05EA0C
:102BF0000103958905EA010413B10CB1012000E03D
:102C0000002030BDCA4302827047000000204449C2
:102C10000860091D0860091D0860091D0860414819
:102C20003F4914310860704700213D498279002AEC
:102C30003AD00A46126803689A430B461A600A1D86
:102C4000126803689A430B1D1A60027911440A68DE
:102C500003681A430A60324A0832126803689A43CA
:102C60002F4B08331A601A1D126803689A432C4BC5
:102C70000C331A604279102A0ED11A1F12680368A9
:102C80001A43274B08331A601A1D126803681A4347
:102C9000234B0C331A600DE02149427911440A6834
:102CA00003681A430A6005E0027911440A68036860
:102CB0009A430A6070470021016001710C21417143
:102CC0000021817170471649103109680143144A87
:102CD00010321160704701460020114A1432126808
:102CE0000A400AB1012000E0002070470C4914316D
:102CF00008607047014600200022094B1B6803EA68
:102D00000102074B14331B680B4013B10AB10120B9
:102D100000E000207047024914310860704700004D
:102D200000040140FFFF0F0010B56FF00400FDF735
:102D300014FE2E4800682E49B0FBF1F02D490870B2
:102D40000846007800EB4001C1EBC0104FF6FF7160
:102D500001EAC0002849088010BD0146254A1278C2
:102D60004A434FF0E0235A6100229A611A461269E1
:102D700042F001021A6100BF4FF0E022106900F03A
:102D800001021AB100F48032002AF5D04FF0E0229F
:102D9000126922F001024FF0E0231A6100229A61C9
:102DA00070470146144A12884A434FF0E0235A61A3
:102DB00000229A611A46126942F001021A6100BFAC
:102DC0004FF0E022106900F001021AB100F48032E5
:102DD000002AF5D04FF0E022126922F001024FF0F4
:102DE000E0231A6100229A61704700000000002071
:102DF00000127A003C0000203E00002030BF7047E7
:102E000072B6704762B67047014600BF704700BF98
:102E1000494A128802F04002002AF9D0C2B2464B59
:102E20001B1D1A80704710B586B00446012144F27C
:102E30000400FDF71FFF4FF40070ADF814000320ED
:102E40008DF8160018208DF8170005A93B48FEF7ED
:102E50005FFB4FF48060ADF8140004208DF817007C
:102E600005A93648FEF754FB25208DF80000032005
:102E70008DF801008DF8020001208DF803006846EE
:102E8000FDF721FD01940020ADF80800ADF80A001F
:102E9000ADF80C00ADF810000C20ADF80E0001A943
:102EA0002548FEF714F9012240F225512248FEF789
:102EB000A6F901212048FEF796F906B010BD10B51D
:102EC00040F225511C48FEF77FFA10B31A48FEF76E
:102ED000FBF9C4B21A48008800F40040C8B9184889
:102EE000008800F4804060B10A2C03D0002014490F
:102EF000088020E01248008840F400401049088013
:102F000019E00D2C06D10E48008840F480400C4991
:102F1000088010E00A480088C0F30D0009490C54ED
:102F200007480088401C0649088008460088C728D2
:102F300001DD0020088010BD00380140000801407C
:102F400044000020F402002008B501212420FDF7F0
:102F500091FE4FF48070ADF8000010208DF8030052
:102F600003208DF8020069460948FEF7D1FA4FF4B4
:102F700080710748FEF779FB0420ADF80000694630
:102F80000448FEF7C5FA04210248FEF76EFB08BDAF
:102F9000000801400014014008B501211420FDF78C
:102FA00069FE01213748FEF784FB4FF40040ADF87D
:102FB000000048208DF8030069463348FEF7A8FA60
:102FC0002020ADF8000048208DF8030069462F4806
:102FD000FEF79EFA0120ADF8000028208DF80300CE
:102FE00069462948FEF794FA08BD10B5044614B1A5
:102FF0000120274908702648007868B3202123481B
:10300000FEF719FB58B14FF400411F48FEF713FBC0
:1030100028B101211C48FEF70EFB01281CD10A2013
:10302000FFF7BFFE00201A49087020211748FEF75D
:1030300002FB08B9012010BD4FF400411248FEF711
:10304000FAFA08B90220F6E701210F48FEF7F3FA71
:10305000012815D10320EEE720210C48FEF7EBFAFA
:1030600001280DD1C1030848FEF7E5FA012807D170
:1030700001210548FEF7DFFA10B901200449087064
:103080000020D8E700023000000801400010014095
:103090004600002010B504464FF48071FE48FEF74C
:1030A000E6FA4FF40071FC48FEF7E1FA2146FB48CE
:1030B000FEF7E4FA8021F848FEF7D9FA8021F648B5
:1030C000FEF7D3FA4FF40071F348FEF7CEFA10BDC5
:1030D00010B504464FF48071EF48FEF7C6FA4FF47E
:1030E0000071ED48FEF7C3FA2146EC48FEF7C6FA38
:1030F0008021E948FEF7BBFA8021E748FEF7B5FAE0
:103100004FF40071E448FEF7B0FA10BD10B54FF06F
:103110008830E2490860091D08600020DF490C3151
:1031200008608915DC48FEF7A0FA4FF40071DA4810
:10313000FEF79DFA4021D848FEF799FAD8488088D2
:1031400048F68911884202D10220FFF706FED348D3
:10315000FEF77AFA04464021CF48FEF786FA4FF48C
:103160000071CD48FEF781FA4FF03330CB4908604B
:10317000091D08604FF6FF70C8490C3108602046F1
:1031800010BD70B504460D462046FFF783FF4FF48F
:103190008071C148FEF769FA4FF40071BE48FEF72E
:1031A00066FA2946BD48FEF769FA8021BA48FEF75B
:1031B0005EFA8021B848FEF758FA4FF40071B6481D
:1031C000FEF753FA70BD10B504462046FFF762FFC4
:1031D000FFF79CFF10BD10B5B1490889FFF75AFFF2
:1031E00010BD10B504464FF48071AB48FEF73DFAB0
:1031F0004FF40071A848FEF73AFA2146A748FEF7B7
:103200003DFA8021A448FEF732FA8021A248FEF759
:103210002CFA4FF40071A048FEF727FA10BD30B524
:10322000014601F01F04C1F34513CA0AE50205EB8C
:1032300043151544A8B230BD70B504460D469848F4
:10324000808849F24131884205D09548808845F20E
:103250001031884275D192494889FFF71BFF4FF41E
:1032600080718D48FEF701FA4FF400718A48FEF72D
:10327000FEF921128948FEF701FA80218648FEF7FF
:10328000F6F980218448FEF7F0F94FF40071824886
:10329000FEF7EBF94FF480717F48FEF7E6F94FF443
:1032A00000717D48FEF7E3F9E1B27C48FEF7E6F9EC
:1032B00080217948FEF7DBF980217748FEF7D5F9C0
:1032C0004FF400717448FEF7D0F975498889FFF70B
:1032D000E1FE4FF480717048FEF7C7F94FF40071BA
:1032E0006D48FEF7C4F929126C48FEF7C7F9802132
:1032F0006948FEF7BCF980216748FEF7B6F94FF43C
:1033000000716548FEF7B1F94FF480716248FEF72D
:10331000ACF94FF400716048FEF7A9F9E9B25F48D3
:10332000FEF7ACF980215C48FEF7A1F980215A48EC
:10333000FEF79BF94FF400715748FEF796F928E124
:10334000FFE75748808846F6040188427ED15448FA
:103350008079012804D152480088401E001B84B2A5
:103360004F494889FFF796FE4FF480714A48FEF7AF
:103370007CF94FF400714848FEF779F9211247486B
:10338000FEF77CF980214448FEF771F9802142481C
:10339000FEF76BF94FF400713F48FEF766F94FF402
:1033A00080713D48FEF761F94FF400713A48FEF72D
:1033B0005EF9E1B23948FEF761F980213648FEF73F
:1033C00056F980213448FEF750F94FF40071324825
:1033D000FEF74BF932498889FFF75CFE4FF48071A4
:1033E0002D48FEF742F94FF400712B48FEF73FF9E4
:1033F00029122A48FEF742F980212748FEF737F9BB
:1034000080212548FEF731F94FF400712248FEF77C
:103410002CF94FF480712048FEF727F94FF4007122
:103420001D48FEF724F9E9B21C48FEF727F9802170
:103430001948FEF71CF980211748FEF716F94FF4DA
:1034400000711548FEF711F9A3E0FFE714488088E2
:1034500045F2105188427CD111494889FFF71AFE84
:103460004FF480710C48FEF700F94FF400710A48E0
:10347000FEF7FDF821120948FEF700F98021064801
:10348000FEF7F5F880210448FEF7EFF84FF40071DD
:103490000148FEF7EAF805E000100140000C014089
:1034A000BC030020F8494989491C88B2FFF7F2FDA6
:1034B0004FF48071F548FEF7D8F84FF40071F348E7
:1034C000FEF7D5F8E1B2F248FEF7D8F88021EF48D0
:1034D000FEF7CDF88021ED48FEF7C7F84FF40071F4
:1034E000EA48FEF7C2F8E8498889FFF7D3FD4FF4B0
:1034F0008071E648FEF7B9F84FF40071E348FEF733
:10350000B6F82912E248FEF7B9F88021DF48FEF745
:10351000AEF88021DD48FEF7A8F84FF40071DB48D3
:10352000FEF7A3F8D8498989491C88B2FFF7B2FD94
:103530004FF48071D548FEF798F84FF40071D348E6
:10354000FEF795F8E9B2D248FEF798F88021CF4807
:1035500000E00BE0FEF78BF88021CC48FEF785F801
:103560004FF40071C948FEF780F812E0C648807930
:10357000012804D1C4480088401E001B84B2C249FF
:1035800048892146FFF7FDFDBF4988892946FFF795
:10359000F8FD70BD2DE9F04105460E46BA48008899
:1035A000A84203DDB8484088B04202DC0020BDE8F4
:1035B000F08131462846FFF73FFEB348808849F244
:1035C000413188420BD0B048808846F604018842D9
:1035D00005D0AD48808845F21031884203D12E20B5
:1035E000FFF758FD0DE0A848808845F21051884249
:1035F00004D14FF43850FFF74DFD02E02220FFF7D1
:1036000049FD4FF08830A2490860091D08604FF657
:10361000FF709F490C31086089159C48FEF725F81A
:103620004FF400719948FEF722F840219748FEF7C1
:103630001EF80120FFF791FB40219448FEF715F892
:1036400040219248FEF713F80120FFF786FB9048CF
:10365000FDF7FAFF044640218C48FEF706F88A4839
:10366000808849F2413188420BD08748808845F2F2
:103670001031884205D08448808845F21051884234
:1036800011D140218148FDF7F2FF8148FDF7DCFFB1
:10369000804640217D48FDF7E8FFE7B24FF6FF7016
:1036A00000EA072711E07848808846F6040188423E
:1036B0000BD140217548FDF7DAFF40217348FDF733
:1036C000D4FF7348FDF7C0FF04464FF400716F4804
:1036D000FDF7CBFF4FF033306D490860091D0860DE
:1036E0004FF6FF706A490C3108606748808849F2DC
:1036F0002531884216D06448808844F2355188428A
:1037000010D061488088091F88420BD05E488088AD
:1037100048F68911884205D05B4880884BF20551F4
:10372000884201D1204642E75748808849F241311A
:1037300088420BD05448808845F21031884205D029
:103740005148808845F21051884207D1E012C002EA
:10375000B91240EA411040EAE82028E72046FFF786
:103760005EFD24E710B54848808849F2413188421F
:103770000BD04548808846F60401884205D042486F
:10378000808845F21031884203D12920FFF782FC5E
:103790000FE03D48808845F21051884204D14FF433
:1037A0002450FFF777FC04E040F273110720FFF785
:1037B000E8FC10BD10B53448808849F24131884298
:1037C0000BD03148808846F60401884205D02E4847
:1037D000808845F21031884203D12820FFF75AFC37
:1037E0000EE02948808845F21051884204D14FF4F8
:1037F0002050FFF74FFC03E000210720FFF7C1FC3A
:1038000010BD2DE9F0410546002400271E488079AF
:1038100001281ED11C48808846F60401884218D031
:10382000082D15D2DFE805F00406080A0C0E101268
:1038300006250DE007250BE0042509E0052507E036
:10384000012505E0002503E0032501E0022500BF76
:1038500000BF0D48808849F24131884211D00A48A2
:10386000808846F6040188420BD00748808845F2DC
:103870001031884205D00448808845F210518842B2
:103880007ED1082D23D205E0BC03002000100140AA
:10389000000C0140DFE805F00406090C0F121518B2
:1038A00000BF14E044F0800411E044F040040EE056
:1038B00044F0C0040BE044F0200408E044F060044D
:1038C00005E044F0A00402E044F0E00400BF00BFC3
:1038D000FE48808845F21051884202D14FF4585773
:1038E00000E03627F948808845F21031884207D039
:1038F000F648808845F21051884201D044F008040F
:10390000F248808846F60401884201D144F002045E
:1039100021463846FFF735FC04F0200068B1EB483B
:103920000088EA494988884214DAE84806884088CD
:10393000E6490880084646800CE0E4480088E349F0
:103940004988884206DDE14806884088DF490880CA
:1039500008464680DD48808845F2105188427CD177
:10396000DA494889FFF796FB4FF48071D848FDF794
:103970007CFE4FF40071D648FDF779FE002100E08F
:10398000FBE1D448FDF77AFE8021D148FDF76FFEB8
:103990008021CF48FDF769FE4FF40071CC48FDF758
:1039A00064FECA494989491C88B2FFF773FB4FF48A
:1039B0008071C748FDF759FE4FF40071C448FDF708
:1039C00056FE0021C348FDF759FE8021C048FDF78F
:1039D0004EFE8021BE48FDF748FE4FF40071BC4802
:1039E000FDF743FEB9494989891C88B2FFF752FBAC
:1039F0004FF48071B648FDF738FE4FF40071B448BB
:103A0000FDF735FEB1480088401EC0F30F21B148D4
:103A1000FDF734FE8021AE48FDF729FE8021AC4839
:103A2000FDF723FE4FF40071A948FDF71EFEA749DC
:103A30004989C91C88B2FFF72DFB4FF48071A44857
:103A4000FDF713FE4FF40071A148FDF710FE9F48EB
:103A50000078401EC1B29F4800E098E0FDF70EFEDE
:103A600080219B48FDF703FE80219948FDF7FDFD6D
:103A70004FF400719648FDF7F8FD94498889FFF7E7
:103A800009FB4FF480719248FDF7EFFD4FF4007190
:103A90008F48FDF7ECFD00218E48FDF7EFFD8021FA
:103AA0008B48FDF7E4FD80218948FDF7DEFD4FF4EA
:103AB00000718748FDF7D9FD84498989491C88B27E
:103AC000FFF7E8FA4FF480718148FDF7CEFD4FF41F
:103AD00000717F48FDF7CBFD00217E48FDF7CEFD4C
:103AE00080217B48FDF7C3FD80217948FDF7BDFDAE
:103AF0004FF400717648FDF7B8FD74498989891C37
:103B000088B2FFF7C7FA4FF480717148FDF7ADFD39
:103B10004FF400716E48FDF7AAFD6C484088401EC6
:103B2000C0F30F216B48FDF7A9FD80216848FDF720
:103B30009EFD80216648FDF798FD4FF400716448B2
:103B4000FDF793FD61498989C91C88B2FFF7A2FA84
:103B50004FF480715E48FDF788FD4FF400715C48BA
:103B6000FDF785FD59488078401EC1B25948FDF7E0
:103B700085FD80215648FDF77AFD80215448FDF7E8
:103B800074FD4FF400715248FDF76FFD27E14F4976
:103B90004889FFF77FFA4FF480714D48FDF765FDC6
:103BA0004FF400714A48FDF762FD00214948FDF7D6
:103BB00065FD80214648FDF75AFD80214448FDF708
:103BC00054FD4FF400714248FDF74FFD4FF48071F2
:103BD0003F48FDF74AFD4FF400713D48FDF747FDB2
:103BE00000213C48FDF74AFD80213948FDF73FFDA3
:103BF00080213748FDF739FD4FF400713448FDF757
:103C000034FD4FF480713248FDF72FFD4FF4007101
:103C10002F48FDF72CFD2D480088401EC0F30F21D2
:103C20002C48FDF72BFD80212948FDF720FD802140
:103C30002748FDF71AFD4FF400712548FDF715FDE3
:103C40004FF480712248FDF710FD4FF400712048B9
:103C5000FDF70DFD1D480078401EC1B21D48FDF75F
:103C60000DFD80211A48FDF702FD80211848FDF75F
:103C7000FCFC4FF400711648FDF7F7FC13498889E6
:103C8000FFF708FA4FF480711148FDF7EEFC4FF48E
:103C900000710F48FDF7EBFC00210E48FDF7EEFC2C
:103CA00080210B48FDF7E3FC80210948FDF7DDFC8E
:103CB0004FF400710648FDF7D8FC4FF480710448BA
:103CC000FDF7D3FC4FF40071014805E0BC03002070
:103CD00000100140000C0140FDF7C9FC0021FE4826
:103CE000FDF7CCFC8021FD48FDF7C1FC8021FB489D
:103CF000FDF7BBFC4FF40071F848FDF7B6FC4FF43C
:103D00008071F648FDF7B1FC4FF40071F348FDF700
:103D1000AEFCF3484088401EC0F30F21EE48FDF78B
:103D2000ADFC8021ED48FDF7A2FC8021EB48FDF7BA
:103D30009CFC4FF40071E948FDF797FC4FF480714B
:103D4000E648FDF792FC4FF40071E448FDF78FFC64
:103D5000E3488078401EC1B2DF48FDF78FFC802128
:103D6000DE48FDF784FC8021DC48FDF77EFC4FF443
:103D70000071DA48FDF779FC31E0082D1CD2DFE84C
:103D800005F004070A0D0F12151844F0300413E073
:103D900044F0100410E044F020040DE000BF0BE0FC
:103DA00044F0380408E044F0280405E044F0180426
:103DB00002E044F0080400BF00BFC948808848F60C
:103DC0008911884204D1112746F24000044302E0E1
:103DD000032744F4805421463846FFF7D2F9BDE862
:103DE000F08170B504460D4629462046FFF724FAB7
:103DF000FFF7F1F94FF48071B848FDF736FC4FF446
:103E00000071B648FDF733FCB6480188B248FDF7AB
:103E100035FC8021B148FDF72AFC8021AF48FDF731
:103E200024FC4FF40071AD48FDF71FFC70BD70B568
:103E300004460D461646AA48808849F24131884218
:103E400005D0A748808845F21031884275D1A44931
:103E50004889FFF71FF94FF48071A048FDF705FC72
:103E60004FF400719D48FDF702FC21129A48FDF7BE
:103E700005FC80219948FDF7FAFB80219748FDF762
:103E8000F4FB4FF400719548FDF7EFFB4FF48071A0
:103E90009248FDF7EAFB4FF400719048FDF7E7FB0D
:103EA000E1B28D48FDF7EAFB80218C48FDF7DFFB8E
:103EB00080218A48FDF7D9FB4FF400718748FDF750
:103EC000D4FB87498889FFF7E5F84FF48071834870
:103ED000FDF7CBFB4FF400718048FDF7C8FB2912BA
:103EE0007D48FDF7CBFB80217C48FDF7C0FB80219E
:103EF0007A48FDF7BAFB4FF400717848FDF7B5FB3F
:103F00004FF480717548FDF7B0FB4FF400717348B2
:103F1000FDF7ADFBE9B27048FDF7B0FB80216F48BB
:103F2000FDF7A5FB80216D48FDF79FFB4FF4007165
:103F30006A48FDF79AFB2CE1FFE76948808845F263
:103F4000105188427ED166494889FFF7A3F84FF4A3
:103F500080716248FDF789FB4FF400715F48FDF7FF
:103F600086FB21125C48FDF789FB80215B48FDF749
:103F70007EFB80215948FDF778FB4FF400715748CC
:103F8000FDF773FB56494989491C88B2FFF782F84F
:103F90004FF480715148FDF768FB4FF400714F48B2
:103FA000FDF765FBE1B24C48FDF768FB80214B480B
:103FB000FDF75DFB80214948FDF757FB4FF4007189
:103FC0004648FDF752FB46498889FFF763F84FF4EE
:103FD00080714248FDF749FB4FF400713F48FDF7FF
:103FE00046FB29123C48FDF749FB80213B48FDF781
:103FF0003EFB80213948FDF738FB4FF4007137480C
:10400000FDF733FB36498989491C88B2FFF742F82E
:104010004FF480713148FDF728FB4FF400712F48B1
:10402000FDF725FBE9B22C48FDF728FB80212B4842
:10403000FDF71DFB80212948FDF717FB4FF40071A8
:10404000264800E002E0FDF710FBA2E0244880884B
:1040500046F6040188427CD121488079012804D1A8
:104060001F480088401E001B84B21D494889FFF785
:1040700011F84FF480711948FDF7F7FA4FF4007109
:104080001648FDF7F4FA21121348FDF7F7FA8021DC
:104090001248FDF7ECFA80211048FDF7E6FA4FF4DC
:1040A00000710E48FDF7E1FA4FF480710B48FDF7FF
:1040B000DCFA4FF400710948FDF7D9FAE1B206487D
:1040C000FDF7DCFA80210548FDF7D1FA802103488D
:1040D000FDF7CBFA08E00000000C014000100140A1
:1040E000BC030020480000204FF40071FD48FDF79C
:1040F000BCFAFD498889FEF7CDFF4FF48071F9487D
:10410000FDF7B3FA4FF40071F648FDF7B0FA291243
:10411000F648FDF7B3FA8021F248FDF7A8FA8021AE
:10412000F048FDF7A2FA4FF40071EE48FDF79DFA52
:104130004FF48071EB48FDF798FA4FF40071E948AD
:10414000FDF795FAE9B2E948FDF798FA8021E548CC
:1041500000E00BE0FDF78BFA8021E248FDF785FADD
:104160004FF40071DF48FDF780FA12E0DE488079F5
:10417000012804D1DC480088401E001B84B2DA49C3
:1041800048892146FEF7FDFFD74988892946FEF771
:10419000F8FF4FF48071D348FDF769FA4FF40071CE
:1041A000D048FDF764FAD0480189D048FDF766FA97
:1041B0008021CC48FDF75BFA8021CA48FDF755FA0B
:1041C0004FF40071C748FDF750FA4FF48071C548AD
:1041D000FDF74BFA4FF40071C248FDF748FA31463B
:1041E000C248FDF74BFA8021BE48FDF740FA802116
:1041F000BC48FDF73AFA4FF40071BA48FDF735FABA
:1042000070BD10B50446002C60D1B7498871F0200C
:1042100008804FF4A07048800846808849F24131F8
:1042200088420BD0B048808846F60401884205D009
:10423000AD48808845F2103188421AD12C20AA4915
:1042400008812A2048812B2088810846808846F6EC
:104250000401884205D0A448808845F21031884284
:1042600006D14FF4A070A04908804FF4F070488048
:1042700095E09D48808848F68911884207D1222020
:10428000994908814E2048814F20888187E09648CF
:10429000808845F21051884210D14FF43050924935
:1042A00008814FF4285048814FF42C5088814FF4F6
:1042B000F07008804FF44870488070E022208A49EE
:1042C0000881202048812120888168E001208649DA
:1042D00088714FF4A0700880F020488008468088DC
:1042E00049F24131884205D07F48808845F210313B
:1042F000884207D12C207C4908812A2048812B2024
:10430000888139E07848808846F60401884207D1E0
:104310002C20754908812B2048812A2088812BE098
:104320007148808848F68911884207D122206E4959
:1043300008814F2048814E2088811DE06A4880888E
:1043400045F21051884210D14FF43050664908812F
:104350004FF4285048814FF42C5088814FF4487016
:1043600008804FF4F070488006E022205E49088102
:1043700021204881202088815B48808846F60401FE
:10438000884205D05848808845F21031884206D1CD
:104390004FF4F070544908804FF4A070488000201A
:1043A000FFF72FFA10BD2DE9FF5F04460D461646B4
:1043B0001F46A019401E86B2E819401E87B24A481F
:1043C000808849F2413188420BD04748808845F2C5
:1043D0001031884205D04448808846F6040188425E
:1043E0007ED141494889FEF755FE4FF480713D4822
:1043F000FDF73BF94FF400713A48FDF738F9211207
:104400003A48FDF73BF980213648FDF730F9802125
:104410003448FDF72AF94FF400713248FDF725F9C9
:104420004FF480712F48FDF720F94FF400712D48AB
:10443000FDF71DF9E1B22D48FDF720F9802129484B
:10444000FDF715F980212748FDF70FF94FF40071AA
:104450002448FDF70AF94FF480712248FDF705F969
:104460004FF400711F48FDF702F931121F48FDF7A4
:1044700005F980211B48FDF7FAF880211948FDF75E
:10448000F4F84FF400711748FDF7EFF84FF480711E
:104490001448FDF7EAF84FF400711248FDF7E7F809
:1044A000F1B21248FDF7EAF880210E48FDF7DFF877
:1044B00080210C48FDF7D9F84FF400710948FDF749
:1044C000D4F809498889FEF7E5FD4FF48071054865
:1044D000FDF7CBF84FF400710248FDF7C8F807E08C
:1044E00069E0000000100140BC030020000C014006
:1044F0002912FE48FDF7C2F88021FD48FDF7B7F804
:104500008021FB48FDF7B1F84FF40071F848FDF742
:10451000ACF84FF48071F648FDF7A7F84FF400713E
:10452000F348FDF7A4F8E9B2F048FDF7A7F88021B9
:10453000EF48FDF79CF88021ED48FDF796F84FF421
:104540000071EB48FDF791F84FF48071E848FDF7F2
:104550008CF84FF40071E648FDF789F83912E3480A
:10456000FDF78CF88021E248FDF781F88021E048D2
:10457000FDF77BF84FF40071DD48FDF776F84FF456
:104580008071DB48FDF771F84FF40071D848FDF7F2
:104590006EF8F9B2D548FDF771F88021D448FDF7DF
:1045A00066F88021D248FDF760F84FF40071D048DA
:1045B000FDF75BF853E1CF48808845F210518842FF
:1045C0007DD1CC494889FEF765FD4FF48071C8481C
:1045D000FDF74BF84FF40071C548FDF748F821127C
:1045E000C248FDF74BF88021C148FDF740F8802113
:1045F000BF48FDF73AF84FF40071BD48FDF735F8B4
:10460000BC494989491C88B2FEF744FD4FF48071CA
:10461000B748FDF72AF84FF40071B548FDF727F8C1
:10462000E1B2B248FDF72AF88021B148FDF71FF842
:104630008021AF48FDF719F84FF40071AC48FDF741
:1046400014F8AC494989891C88B2FEF723FD4FF460
:104650008071A748FDF709F84FF40071A448FDF7F1
:1046600006F83112A148FDF709F88021A048FCF7AF
:10467000FEFF80219E48FCF7F8FF4FF400719C4834
:10468000FCF7F3FF9B494989C91C88B2FEF702FD7C
:104690004FF480719648FCF7E8FF4FF4007194489E
:1046A000FCF7E5FFF1B29148FCF7E8FF8021904864
:1046B000FCF7DDFF80218E48FCF7D7FF00E087E0A4
:1046C0004FF400718A48FCF7D0FF8A498889FEF7C9
:1046D000E1FC4FF480718648FCF7C7FF4FF400718E
:1046E0008348FCF7C4FF29128048FCF7C7FF8021EC
:1046F0007F48FCF7BCFF80217D48FCF7B6FF4FF4F4
:1047000000717B48FCF7B1FF7A498989491C88B25E
:10471000FEF7C0FC4FF480717548FCF7A6FF4FF41C
:1047200000717348FCF7A3FFE9B27048FCF7A6FFDD
:1047300080216F48FCF79BFF80216D48FCF795FFB7
:104740004FF400716A48FCF790FF6A498989891C17
:1047500088B2FEF79FFC4FF480716548FCF785FF37
:104760004FF400716248FCF782FF39125F48FCF792
:1047700085FF80215E48FCF77AFF80215C48FCF7CA
:1047800074FF4FF400715A48FCF76FFF594989894B
:10479000C91C88B2FEF77EFC4FF480715448FCF7C8
:1047A00064FF4FF400715248FCF761FFF9B24F48C3
:1047B000FCF764FF80214E48FCF759FF80214C48EC
:1047C000FCF753FF4FF400714948FCF74EFF46E0F9
:1047D0004848807901280ED1A846B9464548008846
:1047E000801B401E80B2009042480088001B401E83
:1047F0001FFA80FB03E0A046B1460095BB463D484A
:10480000808848F6891188420DD14FF0440A44202F
:10481000039048EA09201FFA80F8C146452002901B
:104820004620019007E04FF0500A5120039052209B
:1048300002905320019041465046FEF7A2FC4946A3
:104840000398FEF79EFC00990298FEF79AFC5946E1
:104850000198FEF796FC29462046FEF7EDFCBDE8E0
:10486000FF9F70B5044600262248058840884543CE
:104870002048808846F60401884216D11D48807978
:10488000012812D100201B4988712A2048812B2041
:10489000888100210846FEF7CFFC01201549887168
:1048A0002B2048812A20888103E000210846FEF75A
:1048B000C3FCFEF790FC002622E04FF480710C4808
:1048C000FCF7D3FE4FF400710948FCF7D0FE2146F7
:1048D0000648FCF7D3FE80210548FCF7C8FE80217E
:1048E0000348FCF7C2FE4FF4007105E0000C0140E4
:1048F00000100140BC030020FE48FCF7B6FE761C09
:10490000AE42DAD370BD08B501211920FCF7B2F927
:104910000121F948FCF7CDFE4FF4F860ADF8000036
:1049200010208DF8030003208DF802006946F1483D
:10493000FCF7EEFD4FF4F861EE48FCF796FE4FF6FB
:10494000FF70ADF800006946EC48FCF7E1FD4FF65A
:10495000FF71EA48FCF789FE3220FEF722FA0121B6
:104960000020FEF70EFC3220FEF71BFA0020FEF7B7
:104970002AFCE349888008468088FF280ADB08462D
:1049800080884FF6FF71884204D0DD488088B0F5FA
:10499000134F7CD1D320FEF77DFBFEF7B7FBFEF76C
:1049A000B5FBFEF7B3FBD6498880084680884FF6F2
:1049B000FF7101EA0020D2498880FEF7A7FBD049A9
:1049C00089880843CE4988800846808849F2413169
:1049D00088426CD0BF20FEF75DFBFEF797FBFEF729
:1049E00095FBFEF793FBFEF791FBC54988800846CF
:1049F00080884FF6FF7101EA0020C1498880FEF7E8
:104A000085FBBF4989880843BD498880084680885E
:104A100046F6040188424AD0D420FEF73BFBFEF75D
:104A200075FBFEF773FBFEF771FBB54988800846FE
:104A300080884FF6FF7101EA0020B1498880FEF7B7
:104A400065FBAF4989880843AD498880084680885E
:104A500045F2103188422AD04FF45A40FEF71AFB33
:104A6000FEF754FB4FF45B40FEF714FBFEF74EFBE2
:104A7000A3498880084680884FF6FF7101EA00202C
:104A80009F4988804FF45C40FEF704FB00E00EE095
:104A9000FEF73CFB9A498988084399498880084673
:104AA0008088B0F5004F02D145F2105088809448BC
:104AB000818894A013F09AF89148808849F2413196
:104AC00088427CD1CF20FEF7E5FA0020FEF700FBFC
:104AD000C120FEF7FDFA3020FEF7FAFAED20FEF7CE
:104AE000D9FA6420FEF7F4FA0320FEF7F1FA122057
:104AF000FEF7EEFA8120FEF7EBFAE820FEF7CAFA9D
:104B00008520FEF7E5FA1020FEF7E2FA7A20FEF79C
:104B1000DFFACB20FEF7BEFA3920FEF7D9FA2C20B7
:104B2000FEF7D6FA0020FEF7D3FA3420FEF7D0FACB
:104B30000220FEF7CDFAF720FEF7ACFA2020FEF7B0
:104B4000C7FAEA20FEF7A6FA0020FEF7C1FA002015
:104B5000FEF7BEFAC020FEF79DFA1B20FEF7B8FA5A
:104B6000C120FEF797FA0120FEF7B2FAC520FEF742
:104B700091FA3020FEF7ACFA3020FEF7A9FAC720F0
:104B8000FEF788FAB720FEF7A3FA3620FEF782FA7E
:104B90004820FEF79DFA3A20FEF77CFA5520FEF7F2
:104BA00097FAB120FEF776FA0020FEF791FA1A2064
:104BB000FEF78EFAB620FEF76DFA0A2000E0A9E0B3
:104BC000FEF786FAA220FEF783FAF220FEF762FAD9
:104BD0000020FEF77DFA2620FEF75CFA0120FEF7A2
:104BE00077FAE020FEF756FA0F20FEF771FA2A2036
:104BF000FEF76EFA2820FEF76BFA0820FEF768FA37
:104C00000E20FEF765FA0820FEF762FA5420FEF740
:104C10005FFAA920FEF75CFA4320FEF759FA0A2052
:104C2000FEF756FA0F20FEF753FA0020FEF750FA6F
:104C30000020FEF74DFA0020FEF74AFA0020FEF7AA
:104C400047FAE120FEF726FA0020FEF741FA152088
:104C5000FEF73EFA1720FEF73BFA0720FEF738FA78
:104C60001120FEF735FA0620FEF732FA2B20FEF768
:104C70002FFA5620FEF72CFA3C20FEF729FA0520E1
:104C8000FEF726FA1020FEF723FA0F20FEF720FA8F
:104C90003F20FEF71DFA3F20FEF71AFA0F20FEF71D
:104CA00017FA2B20FEF7F6F90020FEF711FA002084
:104CB000FEF70EFA0120FEF70BFA3F20FEF708FA86
:104CC0002A20FEF7E7F90020FEF702FA0020FEF79F
:104CD000FFF90020FEF7FCF9EF20FEF7F9F91120AB
:104CE000FEF7D8F97820FEF75CF82920FEF7D2F914
:104CF00003F00CBB0010014000023000000C01402A
:104D0000BC030020204C43442049443A25780D0A36
:104D100000000000FE48808846F6040188427CD1ED
:104D20001120FEF7B7F91420FEF73BF8D020FEF76C
:104D3000B1F90720FEF7CCF94220FEF7C9F91D2092
:104D4000FEF7C6F9D120FEF7A5F90020FEF7C0F95D
:104D50001A20FEF7BDF90920FEF7BAF9D220FEF7B6
:104D600099F90120FEF7B4F92220FEF7B1F9C0202D
:104D7000FEF790F91020FEF7ABF93B20FEF7A8F9FB
:104D80000020FEF7A5F90220FEF7A2F91120FEF798
:104D90009FF9C520FEF77EF90320FEF799F9C82098
:104DA000FEF778F90020FEF793F92520FEF790F939
:104DB0002120FEF78DF90520FEF78AF90020FEF785
:104DC00087F90A20FEF784F96520FEF781F925208E
:104DD000FEF77EF97720FEF77BF95020FEF778F991
:104DE0000F20FEF775F90020FEF772F9F820FEF7A4
:104DF00051F90120FEF76CF9FE20FEF74BF9002077
:104E0000FEF766F90220FEF763F92020FEF742F96B
:104E10003620FEF73FF9082000E02CE0FEF758F9B5
:104E20003A20FEF737F95520FEF752F92B20FEF70E
:104E300031F90020FEF74CF90020FEF749F9012076
:104E4000FEF746F93F20FEF743F92A20FEF722F944
:104E50000020FEF73DF90020FEF73AF90120FEF7A9
:104E600037F9DF20FEF734F97820FDF79AFF292083
:104E7000FEF710F93CE7A648808845F210318842D9
:104E800040F07C87ED20FEF705F90120FEF720F9C0
:104E9000FE20FEF71DF9EE20FEF7FCF8DE20FEF7FF
:104EA00017F92120FEF714F9F120FEF7F3F801209D
:104EB000FEF70EF9DF20FEF7EDF81020FEF708F9F7
:104EC000C420FEF7E7F88F20FEF702F9C620FEF7B0
:104ED000E1F80020FEF7FCF8E220FEF7F9F8E22006
:104EE000FEF7F6F8E220FEF7F3F8BF20FEF7D2F85F
:104EF000AA20FEF7EDF8B020FEF7CCF80D20FEF763
:104F0000E7F80020FEF7E4F80D20FEF7E1F80020B6
:104F1000FEF7DEF81120FEF7DBF80020FEF7D8F8E8
:104F20001920FEF7D5F80020FEF7D2F82120FEF771
:104F3000CFF80020FEF7CCF82D20FEF7C9F80020AE
:104F4000FEF7C6F83D20FEF7C3F80020FEF7C0F8D4
:104F50005D20FEF7BDF80020FEF7BAF85D20FEF7F1
:104F6000B7F80020FEF7B4F8B120FEF793F88020E0
:104F7000FEF7AEF80020FEF7ABF88B20FEF7A8F89E
:104F80000020FEF7A5F89620FEF7A2F80020FEF715
:104F90009FF8B220FEF77EF80020FEF799F8002077
:104FA000FEF796F80220FEF793F80020FEF790F83F
:104FB0000320FEF78DF80020FEF78AF8B320FEF7F5
:104FC00069F80020FEF784F80020FEF781F8002041
:104FD000FEF77EF80020FEF77BF80020FEF778F859
:104FE0000020FEF775F80020FEF772F80020FEF7AB
:104FF0006FF80020FEF76CF80020FEF769F800203B
:10500000FEF766F80020FEF763F80020FEF760F870
:105010000020FEF75DF80020FEF75AF80020FEF7AA
:1050200057F80020FEF754F80020FEF751F8002052
:10503000FEF74EF80020FEF74BF80020FEF748F888
:105040000020FEF745F80020FEF742F80020FEF7AA
:105050003FF8B420FEF71EF88B20FEF739F8002049
:10506000FEF736F89620FEF733F80020FEF730F80A
:10507000A120FEF72DF80020FEF72AF8B520FEF754
:1050800009F80220FEF724F80020FEF721F803209B
:10509000FEF71EF80020FEF71BF80420FEF718F8B4
:1050A0000020FEF715F8B620FDF7F4FF0020FEF70C
:1050B0000FF80020FEF70CF8B720FDF7EBFF0020FB
:1050C000FEF706F80020FEF703F83F20FEF700F891
:1050D0000020FDF7FDFF5E20FDF7FAFF0020FDF741
:1050E000F7FF6420FDF7F4FF0020FDF7F1FF8C20AF
:1050F000FDF7EEFF0020FDF7EBFFAC20FDF7E8FF2A
:105100000020FDF7E5FFDC20FDF7E2FF002001E0D5
:10511000BC030020FDF7DCFF7020FDF7D9FF002065
:10512000FDF7D6FF9020FDF7D3FF0020FDF7D0FF5D
:10513000EB20FDF7CDFF0020FDF7CAFFDC20FDF7D7
:10514000C7FF0020FDF7C4FFB820FDF7A3FF002034
:10515000FDF7BEFF0020FDF7BBFF0020FDF7B8FF05
:105160000020FDF7B5FF0020FDF7B2FF0020FDF79E
:10517000AFFF0020FDF7ACFF0020FDF7A9FFBA202C
:10518000FDF788FF2420FDF7A3FF0020FDF7A0FF17
:105190000020FDF79DFF0020FDF79AFFC120FDF7DD
:1051A00079FF2020FDF794FF0020FDF791FF5420A8
:1051B000FDF78EFF0020FDF78BFFFF20FDF788FF36
:1051C0000020FDF785FFC220FDF764FF0A20FDF7F0
:1051D0007FFF0020FDF77CFF0420FDF779FF002012
:1051E000FDF776FFC320FDF755FF3C20FDF770FF6C
:1051F0000020FDF76DFF3A20FDF76AFF0020FDF764
:1052000067FF3920FDF764FF0020FDF761FF3720BD
:10521000FDF75EFF0020FDF75BFF3C20FDF758FF28
:105220000020FDF755FF3620FDF752FF0020FDF767
:105230004FFF3220FDF74CFF0020FDF749FF2F20E4
:10524000FDF746FF0020FDF743FF2C20FDF740FF50
:105250000020FDF73DFF2920FDF73AFF0020FDF774
:1052600037FF2620FDF734FF0020FDF731FF242013
:10527000FDF72EFF0020FDF72BFF2420FDF728FF70
:105280000020FDF725FF2320FDF722FF0020FDF77A
:105290001FFF3C20FDF71CFF0020FDF719FF362003
:1052A000FDF716FF0020FDF713FF3220FDF710FF7A
:1052B0000020FDF70DFF2F20FDF70AFF0020FDF76E
:1052C00007FF2C20FDF704FF0020FDF701FF292038
:1052D000FDF7FEFE0020FDF7FBFE2620FDF7F8FEA1
:1052E0000020FDF7F5FE2420FDF7F2FE0020FDF77B
:1052F000EFFE2420FDF7ECFE0020FDF7E9FE232061
:10530000FDF7E6FE0020FDF7E3FEC420FDF7C2FE38
:105310006220FDF7DDFE0020FDF7DAFE0520FDF737
:10532000D7FE0020FDF7D4FE8420FDF7D1FE00203B
:10533000FDF7CEFEF020FDF7CBFE0020FDF7C8FE06
:105340001820FDF7C5FE0020FDF7C2FEA420FDF7E2
:10535000BFFE0020FDF7BCFE1820FDF7B9FE0020BF
:10536000FDF7B6FE5020FDF7B3FE0020FDF7B0FEBE
:105370000C20FDF7ADFE0020FDF7AAFE1720FDF77B
:10538000A7FE0020FDF7A4FE9520FDF7A1FE00205A
:10539000FDF79EFEF320FDF79BFE0020FDF798FE33
:1053A000E620FDF795FE0020FDF792FEC520FDF7F3
:1053B00071FE3220FDF78CFE0020FDF789FE4420AF
:1053C000FDF786FE0020FDF783FE6520FDF780FED9
:1053D0000020FDF77DFE7620FDF77AFE0020FDF728
:1053E00077FE8820FDF774FE0020FDF771FEC620D1
:1053F000FDF750FE2020FDF76BFE0020FDF768FE54
:105400001720FDF765FE0020FDF762FE0120FDF785
:105410005FFE0020FDF75CFEC720FDF73BFE00208D
:10542000FDF756FE0020FDF753FE0020FDF750FE6D
:105430000020FDF74DFEC820FDF72CFE0020FDF7F3
:1054400047FE0020FDF744FE0020FDF741FE00204E
:10545000FDF73EFEC920FDF71DFE0020FDF738FEDA
:105460000020FDF735FE0020FDF732FE0020FDF79D
:105470002FFE0020FDF72CFE0020FDF729FE002066
:10548000FDF726FE0020FDF723FE0020FDF720FE9D
:105490000020FDF71DFE0020FDF71AFE0020FDF79D
:1054A00017FE0020FDF714FE0020FDF711FE00207E
:1054B000FDF70EFE0020FDF70BFEE020FDF7EAFDF4
:1054C0001620FDF705FE0020FDF702FE1C20FDF76B
:1054D000FFFD0020FDF7FCFD2120FDF7F9FD002078
:1054E000FDF7F6FD3620FDF7F3FD0020FDF7F0FD9A
:1054F0004620FDF7EDFD0020FDF7EAFD5220FDF707
:10550000E7FD0020FDF7E4FD6420FDF7E1FD00204C
:10551000FDF7DEFD7A20FDF7DBFD0020FDF7D8FD6D
:105520008B20FDF7D5FD0020FDF7D2FD9920FDF77A
:10553000CFFD0020FDF7CCFDA820FDF7C9FD002020
:10554000FDF7C6FDB920FDF7C3FD0020FDF7C0FD46
:10555000C420FDF7BDFD0020FDF7BAFDCA20FDF710
:10556000B7FD0020FDF7B4FDD220FDF7B1FD00200E
:10557000FDF7AEFDD920FDF7ABFD0020FDF7A8FD3E
:10558000E020FDF7A5FD0020FDF7A2FDF320FDF7CB
:105590009FFD0020FDF79CFDE120FDF77BFD16201F
:1055A000FDF796FD0020FDF793FD1C20FDF790FD13
:1055B0000020FDF78DFD2220FDF78AFD0020FDF77C
:1055C00087FD3620FDF784FD0020FDF781FD452095
:1055D000FDF77EFD0020FDF77BFD5220FDF778FDF5
:1055E0000020FDF775FD6420FDF772FD0020FDF73A
:1055F0006FFD7A20FDF76CFD0020FDF769FD8B2023
:10560000FDF766FD0020FDF763FD9920FDF760FDC5
:105610000020FDF75DFDA820FDF75AFD0020FDF7F5
:1056200057FDB920FDF754FD0020FDF751FDC420C2
:10563000FDF74EFD0020FDF74BFDCA20FDF748FDAC
:105640000020FDF745FDD220FDF742FD0020FDF7CB
:105650003FFDD820FDF73CFD0020FDF739FDE0209F
:10566000FDF736FD0020FDF733FDF320FDF730FD9B
:105670000020FDF72DFDE220FDF70CFD0520FDF7D4
:1056800027FD0020FDF724FD0B20FDF721FD002064
:10569000FDF71EFD1B20FDF71BFD0020FDF718FD8B
:1056A0003420FDF715FD0020FDF712FD4420FDF725
:1056B0000FFD0020FDF70CFD4F20FDF709FD002038
:1056C000FDF706FD6120FDF703FD0020FDF700FD5D
:1056D0007920FDF7FDFC0020FDF7FAFC8820FDF79E
:1056E000F7FC0020FDF7F4FC9720FDF7F1FC00200B
:1056F000FDF7EEFCA620FDF7EBFC0020FDF7E8FC33
:10570000B720FDF7E5FC0020FDF7E2FCC220FDF725
:10571000DFFC0020FDF7DCFCC720FDF7D9FC0020F2
:10572000FDF7D6FCD120FDF7D3FC0020FDF7D0FC1F
:10573000D620FDF7CDFC0020FDF7CAFCDD20FDF7EB
:10574000C7FC0020FDF7C4FCF320FDF7C1FC0020DE
:10575000FDF7BEFCE320FDF79DFC0520FDF7B8FC3E
:105760000020FDF7B5FC0A20FDF7B2FC0020FDF794
:10577000AFFC1C20FDF7ACFC0020FDF7A9FC33209A
:10578000FDF7A6FC0020FDF7A3FC4420FDF7A0FCDC
:105790000020FDF79DFC5020FDF79AFC0020FDF74E
:1057A00097FC6220FDF794FC0020FDF791FC782027
:1057B000FDF78EFC0020FDF78BFC8820FDF788FCB0
:1057C0000020FDF785FC9720FDF782FC0020FDF707
:1057D0007FFCA620FDF77CFC0020FDF779FCB720BC
:1057E000FDF776FC0020FDF773FCC220FDF770FC8E
:1057F0000020FDF76DFCC720FDF76AFC0020FDF7D7
:1058000067FCD120FDF764FC0020FDF761FCD5208A
:10581000FDF75EFC0020FDF75BFCDD20FDF758FC8A
:105820000020FDF755FCF320FDF752FC0020FDF7AA
:105830004FFCE420FDF72EFC0120FDF749FC002081
:10584000FDF746FC0120FDF743FC0020FDF740FC7E
:105850000220FDF73DFC0020FDF73AFC2A20FDF771
:1058600037FC0020FDF734FC3C20FDF731FC002024
:10587000FDF72EFC4B20FDF72BFC0020FDF728FC4C
:105880005D20FDF725FC0020FDF722FC7420FDF7CC
:105890001FFC0020FDF71CFC8420FDF719FC0020F4
:1058A000FDF716FC9320FDF713FC0020FDF710FC1C
:1058B000A220FDF70DFC0020FDF70AFCB320FDF748
:1058C00007FC0020FDF704FCBE20FDF701FC0020D2
:1058D000FDF7FEFBC420FDF7FBFB0020FDF7F8FB06
:1058E000CD20FDF7F5FB0020FDF7F2FBD320FDF7FF
:1058F000EFFB0020FDF7ECFBDD20FDF7E9FB0020CE
:10590000FDF7E6FBF320FDF7E3FB0020FDF7E0FBEE
:10591000E520FDF7BFFB0020FDF7DAFB0020FDF7D7
:10592000D7FB0020FDF7D4FB0020FDF7D1FB0220C0
:10593000FDF7CEFB0020FDF7CBFB2920FDF7C8FBD0
:105940000020FDF7C5FB3C20FDF7C2FB0020FDF762
:10595000BFFB4B20FDF7BCFB0020FDF7B9FB5D2032
:10596000FDF7B6FB0020FDF7B3FB7420FDF7B0FB9D
:105970000020FDF7ADFB8420FDF7AAFB0020FDF71A
:10598000A7FB9320FDF7A4FB0020FDF7A1FBA220BD
:10599000FDF79EFB0020FDF79BFBB320FDF798FB76
:1059A0000020FDF795FBBE20FDF792FB0020FDF7E0
:1059B0008FFBC420FDF78CFB0020FDF789FBCD2079
:1059C000FDF786FB0020FDF783FBD320FDF780FB6E
:1059D0000020FDF77DFBDC20FDF77AFB0020FDF7C2
:1059E00077FBF320FDF774FB0020FDF771FBE62049
:1059F000FDF750FB1120FDF76BFB0020FDF768FB66
:105A00003420FDF765FB0020FDF762FB5620FDF713
:105A10005FFB0020FDF75CFB7620FDF759FB0020C3
:105A2000FDF756FB7720FDF753FB0020FDF750FBF9
:105A30006620FDF74DFB0020FDF74AFB8820FDF7AF
:105A400047FB0020FDF744FB9920FDF741FB0020B8
:105A5000FDF73EFBBB20FDF73BFB0020FDF738FBCD
:105A60009920FDF735FB0020FDF732FB6620FDF79E
:105A70002FFB0020FDF72CFB5520FDF729FB002014
:105A8000FDF726FB5520FDF723FB0020FDF720FB4B
:105A90004520FDF71DFB0020FDF71AFB4320FDF715
:105AA00017FB0020FDF714FB4420FDF711FB00203D
:105AB000FDF70EFBE720FDF7EDFA3220FDF708FBBE
:105AC0000020FDF705FB5520FDF702FB0020FDF748
:105AD000FFFA7620FDF7FCFA0020FDF7F9FA6620C0
